S01D00002E2E2F7034635F6472697665725F6C69625F6170702E7372656354
S11300000030002091040000F5040000F904000011
S113001000000000000000000000000000000000DC
S1130020000000000000000000000000FD040000CB
S113003000000000000000000105000005050000AC
S1130040090500000D05000011050000150500005C
S1130050F1040000F1040000F1040000F1040000C8
S1130060190500001D0500002105000025050000FC
S1130070290500002D05000031050000F1040000F1
S1130080F1040000F1040000F1040000F104000098
S1130090F1040000F1040000F10400003505000043
S11300A0F1040000F1040000F1040000F104000078
S11300B0F1040000F1040000F1040000F104000068
S1130400FFFFFFFFFFFFFFFFFFFFFFFFFEFFFFFFF9
S1130410402292029A1A92467047C046174B002B0C
S113042000D1134B9D46FFF7F3FF00218B460F4687
S11304301348144A121A03F045FD0E4B002B00D04A
S113044098470D4B002B00D0984700200021040052
S11304500D000D48002802D00C4800E000BF03F056
S113046039FD2000290001F0B1FF03F017FDC0465B
S11304700000080000000000000000000030002020
S11304800CF0FF1F8CF0FF1F0000000000000000B4
S113049072B60E480E4901600A6882F308880D4856
S11304A080470D490D4A0E4B9B1A03DD043BC85887
S11304B0D050FBDC0B490C4A521A03DD0020885053
S11304C0043AFCDA62B609488047000008ED00E00F
S11304D000000000C93200004C49000000F0FF1F7A
S11304E00CF0FF1F0CF0FF1F8CF0FF1F1D04000019
S11304F01148004711480047114800471148004778
S11305001148004711480047114800471148004767
S11305101148004711480047114800471148004757
S11305201148004711480047114800471148004747
S11305301148004711480047F1040000F504000089
S1130540F9040000FD040000010500000505000099
S1130550F1040000F1040000F1040000F1040000C3
S11305604D1C00006D1C0000F1040000F1040000AB
S11305703D0E00004112000065120000F10400006D
S11305800023C25C0133002AFBD1581E70470000CF
S1130590002243088B4274D303098B425FD3030ABE
S11305A08B4244D3030B8B4228D3030C8B420DD3D1
S11305B0FF22090212BA030C8B4202D3121209025F
S11305C065D0030B8B4219D300E0090AC30B8B429D
S11305D001D3CB03C01A5241830B8B4201D38B034B
S11305E0C01A5241430B8B4201D34B03C01A5241F0
S11305F0030B8B4201D30B03C01A5241C30A8B4233
S113060001D3CB02C01A5241830A8B4201D38B021D
S1130610C01A5241430A8B4201D34B02C01A5241C1
S1130620030A8B4201D30B02C01A5241CDD2C30933
S11306308B4201D3CB01C01A524183098B4201D3AF
S11306408B01C01A524143098B4201D34B01C01A9A
S1130650524103098B4201D30B01C01A5241C30812
S11306608B4201D3CB00C01A524183088B4201D381
S11306708B00C01A524143088B4201D34B00C01A6D
S11306805241411A00D20146524110467047FFE7D9
S113069001B5002000F0F0F802BDC0460029F7D0F3
S11306A076E7704703460B437FD4002243088B420E
S11306B074D303098B425FD3030A8B4244D3030BE5
S11306C08B4228D3030C8B420DD3FF22090212BAAA
S11306D0030C8B4202D31212090265D0030B8B4226
S11306E019D300E0090AC30B8B4201D3CB03C01A10
S11306F05241830B8B4201D38B03C01A5241430BEB
S11307008B4201D34B03C01A5241030B8B4201D3DA
S11307100B03C01A5241C30A8B4201D3CB02C01A45
S11307205241830A8B4201D38B02C01A5241430ABD
S11307308B4201D34B02C01A5241030A8B4201D3AC
S11307400B02C01A5241CDD2C3098B4201D3CB0153
S1130750C01A524183098B4201D38B01C01A524102
S113076043098B4201D34B01C01A524103098B4206
S113077001D30B01C01A5241C3088B4201D3CB00F1
S1130780C01A524183088B4201D38B00C01A5241D4
S113079043088B4201D34B00C01A5241411A00D284
S11307A001465241104670475DE0CA0F00D04942ED
S11307B0031000D34042534000229C4603098B425D
S11307C02DD3030A8B4212D3FC22890112BA030AE5
S11307D08B420CD3890192118B4208D38901921167
S11307E08B4204D389013AD0921100E08909C309EC
S11307F08B4201D3CB01C01A524183098B4201D3EE
S11308008B01C01A524143098B4201D34B01C01AD8
S1130810524103098B4201D30B01C01A5241C30850
S11308208B4201D3CB00C01A524183088B4201D3BF
S11308308B00C01A5241D9D243088B4201D34B00DA
S1130840C01A5241411A00D20146634652415B101C
S1130850104601D34042002B00D5494270476346FD
S11308605B1000D3404201B5002000F005F802BD42
S11308700029F8D016E770477047C0460448054B76
S113088010B5834203D0044B002B00D0984710BD11
S11308900CF0FF1F0CF0FF1F000000000648074982
S11308A0091A8B10C90FC91810B5491003D0044B8D
S11308B0002B00D0984710BD0CF0FF1F0CF0FF1F59
S11308C00000000010B5074C2378002B09D1FFF776
S11308D0D5FF054B002B02D0044800E000BF0123E4
S11308E0237010BD0CF0FF1F00000000244900001D
S11308F0054B10B5002B03D00449054800E000BFA8
S1130900FFF7CCFF10BDC0460000000010F0FF1F31
S11309102449000080B584B000AF78607B681B0C6C
S1130920084A94466344FB60FB6819687B681B04AF
S11309301B0C01229A40FB680A431A60C046BD465C
S113094004B080BD0070044080B584B000AF78600E
S11309500023FB6006E00D4A7B68934206D0FB68E7
S11309600133FB60FB68002BF5D000E0C046FB6858
S1130970002B05D0064B074A0748902102F00EF9D8
S1130980FB681800BD4604B080BDC04600A0064008
S1130990203F000028460000443F0000B0B58CB062
S11309A000AFF860B9607A60BB68002B05D18F4B4B
S11309B08F4A9048D72102F0F1F8BB681B68002BDE
S11309C005D18D4B8A4A8B48D82102F0E7F82C23B5
S11309D0FB1800221A8000237B62BB681B68BB6182
S11309E004233B625AE0BB681B683A6A534319000C
S11309F07868FFF7CDFD03001A002A217B181A80BE
S1130A000A00BB181B88002B02D1BB1801221A80D4
S1130A102A257B191B883A6A534319007868FFF723
S1130A20B7FD03007B61BB681B687A69D31AFB615D
S1130A30BB681C687B191B8801331A003B6A53434B
S1130A4019007868FFF7A4FD0300E31AFA699A42D3
S1130A5013D9BB681C687B191B8801331A003B6AD5
S1130A60534319007868FFF793FD0300E31AFB6111
S1130A707B191A887B1901321A80FA69BB699A4278
S1130A8009D8FB69BB613B6A7B622C23FB182A22D1
S1130A90BA1812881A803B6A01333B623B6A202BE6
S1130AA0A1D9BB681B6864211800FFF771FD03001E
S1130AB01A0013005B009B18BA699A4201D94F4B84
S1130AC090E0FB681800FFF73FFF4D4B1800FFF75D
S1130AD021FFFB68DB78DBB20C229343DAB2FB68BC
S1130AE0DA707B6A032B0AD97B6A072B07D8FB6869
S1130AF0DB7ADBB202221343DAB2FB68DA72FB68F8
S1130B009B7ADBB21F229343DAB27B6ADBB2013BEE
S1130B10DBB21343DAB2FB689A72FB689B7ADBB2EE
S1130B201F229343DAB22C217B181B881B0A9BB229
S1130B30DBB21343DAB2FB681A707B181B88DAB293
S1130B40FB685A70FB689B78DAB22F203B1813219C
S1130B508A431A70BB681B79002B09D0BB681A79C9
S1130B603B181B781343DAB23B1810210A431A705E
S1130B70FB682F203A1812789A70FB681B78DBB256
S1130B8020229343DAB2FB681A70FB681B78DAB24E
S1130B90BB685B795B01DBB220210B40DBB2134302
S1130BA0DAB2FB681A703B18FA68D2781A70BB681C
S1130BB09B79002B05D03B183A18127808210A4378
S1130BC01A70BB68DB79002B06D02F22BB18BA1829
S1130BD0127804210A431A70FB682F22BA1812787B
S1130BE0DA7000231800BD460CB0B0BDB43F00005D
S1130BF03C460000443F0000BC3F0000B504000038
S1130C000A00341080B582B000AF78607B68002B96
S1130C1006D10D4B0D4A5621FF310D4801F0BEFFA0
S1130C207B68E12252021A607B6800221A717B6899
S1130C3000225A717B6800229A717B680022DA7163
S1130C40C046BD4602B080BDB43F00004846000027
S1130C50443F000080B584B000AF78607B681B79A6
S1130C60DBB21A007B685B79DBB21B021343FB60C7
S1130C70FB681800BD4604B080BD000080B584B098
S1130C8000AF786039600B217B1800221A707B1842
S1130C901B78DBB20133DAB27B181A703A6880230E
S1130CA01B02134006D07B6880225A713B68154AA8
S1130CB013403B603A688023DB01134006D07B6815
S1130CC040225A713B68104A13403B603B681F2224
S1130CD013400AD03B68DBB21F221340DAB27B68B0
S1130CE01A713B681F2293433B603B68002B02D080
S1130CF0064BFB6001E00023FB60FB681800BD4667
S1130D0004B080BDFF7FFFFFFFBFFFFFB4040000FE
S1130D1080B584B000AFF860B9607A60BB68002B1E
S1130D2012D10E4B0E4A0F490F4801F037FFC0464F
S1130D30FB681B79DBB25BB2002BF9DABB685A1C87
S1130D40BA601A78FB68DA717B685A1E7A60002BE5
S1130D50EDD1C046C046BD4604B080BDAC3F0000E6
S1130D606046000009020000443F000080B586B0E0
S1130D7000AFF860B9607A60BB68002B47D1294B9B
S1130D80294A86218900294801F008FFFB681800D8
S1130D90FFF760FF03007B617B690822134007D0E3
S1130DA0FB6808211800FFF769FF9723DB0034E094
S1130DB07B690422134006D0FB6804211800FFF766
S1130DC05DFF1B4B29E07B690222134006D0FB68C0
S1130DD002211800FFF752FF164B1EE07B69012227
S1130DE0134006D0FB6801211800FFF747FF124BA0
S1130DF013E0FB681B79DBB21A0020231340C5D033
S1130E00BB685A1CBA60FA68D279D2B21A707B688D
S1130E105A1E7A60002BECD100231800BD4606B0A0
S1130E2080BDC046AC3F000074460000443F000053
S1130E30B9040000BA040000BB04000080B500AF90
S1130E40044B1A68044B1B68044819009047C046B9
S1130E50BD4680BD2CF0FF1F28F0FF1F00A00640F8
S1130E6080B584B000AF78607B681B0C084A944658
S1130E706344FB60FB6819687B681B041B0C01223C
S1130E809A40FB680A431A60C046BD4604B080BD60
S1130E900070044080B584B000AF78600323BB6069
S1130EA00023FB6009E00F4BFA689200D3587A687C
S1130EB09A4207D0FB680133FB60FA68BB689A4228
S1130EC0F1D300E0C046FA68BB689A4205D3064BEA
S1130ED0064A0748A92101F061FEFB681800BD46D7
S1130EE004B080BD884600001C400000A0460000FD
S1130EF038400000B0B586B000AFF860B9607A60E1
S1130F00BB68002B05D1714B714A7248D42101F0A2
S1130F1045FEBB681B68002B05D16F4B6C4A6D48BE
S1130F20D52101F03BFE16243B1900221A8015231B
S1130F30FB1800221A7000233B61BB681B681B016D
S1130F4019007868FFF724FB03001A003B191A8084
S1130F503B191B88002B02D13B1901221A8016254C
S1130F607B191B881B0119007868FFF711FB03002C
S1130F701A00BB681B68D31A3B61BB681C687B19E9
S1130F801B8801331B0119007868FFF701FB03007C
S1130F90E31A3A699A4211D9BB681C687B191B8809
S1130FA001331B0119007868FFF7F2FA0300E31A12
S1130FB03B617B191A887B1901321A80BB681B6854
S1130FC064211800FFF7E4FA03001A0013005B0021
S1130FD09B183A699A4201D9404B72E0FB681800A9
S1130FE0FFF758FF02003E4B9200D3581800FFF75A
S1130FF037FFFB68DB78DBB20C229343DAB2FB6881
S1131000DA70FB681B78DBB21F229343DAB2162135
S11310107B181B881B0A9BB2DBB21343DAB2FB6852
S11310201A707B181B88DAB2FB685A70FB689B78CD
S1131030DAB215203B1813218A431A70BB681B7956
S1131040002B09D0BB681A793B181B781343DAB21A
S11310503B1810210A431A70FB6815203A181278BD
S11310609A70FB681B78DBB220229343DAB2BB6828
S11310705B795B01DBB220210B40DBB21343DAB2B4
S1131080FB681A703B18FA68D2781A70BB689B79AF
S1131090002B05D03B183A18127808210A431A701D
S11310A0BB68DB79002B06D01522BB18BA1812785E
S11310B004210A431A70FB681522BA181278DA70F0
S11310C000231800BD4606B0B0BDC046A0400000D5
S11310D0B446000038400000A8400000F5030000BA
S11310E09446000080B582B000AF78607B68002B26
S11310F006D10D4B0D4A5E21FF310D4801F04EFD26
S11311007B68E12252021A607B6800221A717B68B4
S113111000225A717B6800229A717B680022DA717E
S1131120C046BD4602B080BDA0400000C0460000DD
S11311303840000080B584B000AF78607B681B79CC
S1131140DBB21A007B685B79DBB21B021343FB60E2
S1131150FB681800BD4604B080BD80B584B000AF04
S1131160F860B9607A600CE0C046FB681B79DBB2BA
S11311705BB2002BF9DABB685A1CBA601A78FB68B8
S1131180DA717B685A1E7A60002BEDD1C046C046E6
S1131190BD4604B080BD000080B586B000AFF860E5
S11311A0B9607A60BB68002B33D11F4B1F4A8F2173
S11311B089001F4801F0F2FCFB681800FFF7BAFF32
S11311C003007B617B690822134001D0194B26E0A0
S11311D07B690422134001D0174B20E07B69022273
S11311E0134001D0154B1AE07B690122134002D051
S11311F0FD239B0013E0FB681B79DBB21A0020235C
S11312001340D9D0BB685A1CBA60FA68D279D2B2FA
S11312101A707B685A1E7A60002BECD100231800E8
S1131220BD4606B080BDC046D0400000D846000090
S113123038400000F1030000F2030000F303000053
S113124080B500AF044B1A68044B5B68044819006E
S11312509047C046BD4680BD3CF0FF1F30F0FF1FE5
S113126000B0064080B500AF044B1A68044B9B687D
S1131270044819009047C046BD4680BD3CF0FF1F9E
S113128030F0FF1F00C0064080B584B000AF786026
S11312907B681B0C084A94466344FB60FB6819682E
S11312A07B681B041B0C01229A40FB680A431A60EA
S11312B0C046BD4604B080BD0070044080B582B015
S11312C000AF786039603A6880235B01134009D02D
S11312D07B689B79DAB23B681B0ADBB21343DAB250
S11312E07B689A713A688023DB01134009D07B68DC
S11312F09B79DAB23B681B0ADBB21343DAB27B6830
S11313009A713B68DAB27B68DA70C046BD4602B0B7
S113131080BD000080B584B000AF78600023FB601E
S113132009E00E4BFA689200D3587A689A4206D0C4
S1131330FB680133FB60FB68012BF2D900E0C04677
S1131340FB68012B05D9064B064A0748B52101F075
S113135025FCFB681800BD4604B080BD6C47000046
S1131360104100007C4700003441000080B584B087
S113137000AF786039600023FB603B6810221340A3
S113138005D07B681022DA70064BFB6005E03B68F1
S11313900122134001D0044BFB60FB681800BD46DA
S11313A004B080BD4F0400004E04000080B582B03C
S11313B000AF786039607B68DB78DBB21A001023F9
S11313C0134006D17B689B78DBB21A0020231340BC
S11313D006D00A4B1B6839687A681000984705E004
S11313E0074B1B6839687A6810009847BFF34F8F22
S11313F0C046C046BD4602B080BDC04648F0FF1F8F
S11314004CF0FF1F80B586B000AFF860B9607A6019
S1131410BB68002B02D07B68002B06D1364B374AC1
S1131420ED214900364801F0B9FBFB681800FFF7CD
S113143071FF0200334B9200D3581800FFF724FFCA
S1131440FB6800221A70FB6800225A70FB680022B5
S11314509A70FB68FF22DA70FB6800225A71FB68FD
S113146050229A71FB680022DA71FB689B78DBB228
S11314707F221340DAB2FB689A70234AFB6811009A
S11314801800FFF71BFFBB6859687A68FB681800EF
S113149000F064F817203B18FA6892791A703B1828
S11314A03A1812787F210A401A70BB685B78DB0116
S11314B0D9B23B183A1812780A431A703B183A18F2
S11314C012780F218A431A70BB681B7A0F221340CB
S11314D0D9B23B183A1812780A431A70FB683A18C2
S11314E012789A71BB681B78DB01DAB2FB689A70D8
S11314F0C046BD4606B080BD944100008C47000044
S113150034410000744700001250000080B582B0DE
S113151000AF78607B68002B05D10B4B0B4A0C495C
S11315200C4801F03BFB7B680B4A5A607B68002245
S11315305A707B6800221A727B6801221A70C046B6
S1131540BD4602B080BDC046B04100009C470000CB
S11315502302000034410000A086010080B58CB055
S113156000AFF860B9607A6001235B42BB6200237C
S11315707B6200233B621F23FB1800221A704BE09E
S11315801F23FB181B7801229A401300BB611E2302
S1131590FB1800221A7032E01E23FB181A782B4B1A
S11315A05200D35A1A00BB69534319007868FEF7F6
S11315B0EFFF03007B61BA687B699A4204D9BA6879
S11315C07B69D31AFB6203E07A69BB68D31AFB62B6
S11315D0FA6ABB6A9A420CD21F23FB181B787B62FF
S11315E01E23FB181B783B62FB6ABB62FB6A002B61
S11315F00BD01E22BB18BA18127801321A701E239F
S1131600FB181B783F2BC7D900E0C0461F22BB182C
S1131610BA18127801321A701F23FB181B78022B98
S113162002D8BB6A002BABD17B6ADBB29B01DAB276
S11316303B6ADBB23F210B40DBB21343DAB2FB68F7
S11316405A70C046BD460CB080BDC046EC46000092
S113165080B584B000AF786008001100FB1C021C48
S11316601A70BB1C0A1C1A700023FB607B681800EC
S113167000F0BAF80300BB60BB682022134002D01C
S11316800F4BFB6016E07B689B78DBB23022134380
S1131690DAB27B689A70FB1C1B78DB18DAB2BB1CCD
S11316A01B78012B01D1012300E000231343DAB29C
S11316B07B681A71FB681800BD4604B080BDC04643
S11316C04C04000080B586B000AF786008001100BB
S11316D0FB1C021C1A70BB1C0A1C1A7000237B61C1
S11316E07B68180000F080F80300FB601323FB18EC
S11316F006221A70FB682022134009D07B689B786D
S1131700DBB21A002023134002D11D4B7B6131E070
S11317100B217B187A6852781A707B181B783F2249
S11317201340DAB27B685A707B689B78DBB2142270
S11317301343DAB27B689A707B687A1812785A700D
S113174001E0C046C0461322BB181B78BA18591EC4
S11317501170002BF5D1FB1C1B78DB18DAB2BB1C13
S11317601B78012B01D1012300E000231343DAB2DB
S11317707B681A717B691800BD4606B080BDC046FF
S11317804C04000080B584B000AF78600023FB6097
S11317900A23FB18012252421A807B689B78DBB231
S11317A038229343DAB27B689A70C0467B68DB7850
S11317B0DBB21A002023134009D00A217B187A18BF
S11317C01288013A1A807B181B88002BEED10A2359
S11317D0FB181B88002B02D18A23DB00FB60FB680B
S11317E01800BD4604B080BD80B584B000AF7860F9
S11317F07B68DB78DBB2FB607B689B79DBB21A0029
S11318004023134004D0FB688022D2011343FB60C1
S11318107B689B79DBB21A001023134004D0FB6869
S1131820802252011343FB60FB681800BD4604B0DC
S113183080BD000080B586B000AFF860B9607A6002
S11318403B6000237B611323FB1800221A70C046FF
S1131850FB68DB78DBB25BB2002BF9DAFB680222AF
S1131860DA70FB689B78DBB210221343DAB2FB68B0
S11318709A7030E0BB685A1CBA601A78FB681A7117
S1131880C046FB68DB78DBB21A0002231340F8D0B1
S113189013217B18FA68D2781A70FB680222DA7076
S11318A07B181B781022134004D0FB681022DA70D6
S11318B0194B7B611323FB181B780122134007D0BB
S11318C07B68002B04D0FB680122DA70134B7B6128
S11318D07B69002B05D17B685A1E7A60002BC9D125
S11318E000E0C0467B69002B03D13B68042213400F
S11318F003D07B69094A934208D1FB680222DA705B
S1131900FB681800FFF73EFF03007B617B6918004A
S1131910BD4606B080BDC0464F0400004E04000022
S113192080B586B000AFF860B9607A603B60002390
S11319307B6113217B1800221A707B181B78DBB2A1
S11319400133DAB27B181A70C046FB68DB78DBB26D
S11319505BB2002BF9DAFB680222DA70FB689B7831
S1131960DBB218229343DAB2FB689A707B68012BCE
S113197007D1FB689B78DBB208221343DAB2FB6819
S11319809A70FB681B79DAB21323FB181A7032E0E1
S1131990C046FB68DB78DBB21A0002231340F8D0A0
S11319A0FB680222DA707B68002B12D13B680422A8
S11319B0134006D1FB681800FFF7E4FE03007B61C7
S11319C007E0FB689B78DBB210221343DAB2FB68B2
S11319D09A707B68012B07D1FB689B78DBB20822E5
S11319E01343DAB2FB689A70BB685A1CBA60FA688F
S11319F01279D2B21A707B685A1E7A60002BC7D152
S1131A007B691800BD4606B080BD000080B584B077
S1131A1000AF786039603B68002B05D1844B854A60
S1131A208549864801F0BAF80F23FB183A685279C1
S1131A301A700023BB60824A7B6811001800FFF70C
S1131A403DFCC0467B68DB78DBB25BB2002BF9DA85
S1131A503B681B7B002B07D03B685B79012B03D1D0
S1131A600F23FB1800221A703B681B6802221340E4
S1131A700BD03B6819790F23FB181A787B68180080
S1131A80FFF720FE0300BB600AE03B6819790F23CF
S1131A90FB181A787B681800FFF7DAFD0300BB60B7
S1131AA0BB68002B01D0BB68BEE0C0467B68DB7816
S1131AB0DBB21A0002231340F8D07B68DB78DBB278
S1131AC01A007B6811001800FFF750FC0300BB608C
S1131AD0BB68002B0BD0BB685A4A934205D15A4BC2
S1131AE0BB607B681800FFF74DFEBB689CE03B6859
S1131AF01B7B002B00D170E07B680222DA703B680C
S1131B001B7B013BDAB23B681A733B689A683B68FB
S1131B101B7BDB00DA401300DAB27B681A71C04623
S1131B207B68DB78DBB21A0002231340F8D07B68B1
S1131B30DB78DBB21A007B6811001800FFF716FC93
S1131B400300BB60BB68002B09D0BB683D4A9342CD
S1131B5003D17B681800FFF715FEBB6864E03B689F
S1131B601B7B002B02D0BB68002BC5D03B685B7984
S1131B70012B32D17B680222DA703B6819797B68C9
S1131B8001221800FFF79EFD0300BB60BB68002B19
S1131B9001D0BB6848E0C0467B68DB78DBB21A0042
S1131BA002231340F8D07B68DB78DBB21A007B6831
S1131BB011001800FFF7DAFB0300BB60BB68002BC1
S1131BC00BD0BB681F4A934205D11F4BBB607B6897
S1131BD01800FFF7D7FDBB6826E03B685B79002B54
S1131BE00ED13B685B69002B0AD03B6819693B68DE
S1131BF05A693B681B687868FFF71CFE0300BB60EA
S1131C003B685B79012B0ED13B685B69002B0AD0E2
S1131C103B6819693B685A693B681B687868FFF739
S1131C207FFE0300BB60BB681800BD4604B080BDE6
S1131C30C0410000B8470000950300003441000093
S1131C40125000004E0400005104000080B500AFA3
S1131C50044B1B68044A19001000FFF7A7FBC04699
S1131C60BD4680BD40F0FF1F0060064080B500AF58
S1131C70044B5B68044A19001000FFF797FBC04649
S1131C80BD4680BD40F0FF1F0070064080B584B0A3
S1131C9000AF78607B681B0C084A94466344FB6081
S1131CA0FB6819687B681B041B0C01229A40FB68C3
S1131CB00A431A60C046BD4604B080BD00700440AB
S1131CC080B582B000AF78607B681B68024A13401D
S1131CD01800BD4602B080BD0400008080B582B00B
S1131CE000AF78600A00FB1C1A707B681B68074A07
S1131CF01A40FB1C1B785B031B041B0C1A437B68F8
S1131D001A60C046BD4602B080BDC046FB1FFF7FBF
S1131D1080B582B000AF78600A00FB1C1A707B6843
S1131D201B68074A1A40FB1C1B781902F8235B0145
S1131D300B401A437B681A60C046BD4602B080BDA2
S1131D40FBE0FF7F80B582B000AF78600A00FB1C27
S1131D501A70FB1C1B78002B08D07B681B68084A90
S1131D60134080221A437B681A6005E07B681B6875
S1131D70034A1A407B681A60C046BD4602B080BD63
S1131D807BFFFF7F80B582B000AF78607B685B68C3
S1131D908022D2031A437B685A60C046BD4602B013
S1131DA080BD000080B582B000AF78600A00FB1CE3
S1131DB01A70FB1C1B780F2B05D90A4B0A4A0B49D6
S1131DC00B4800F0EBFE7B685B681B011A09FB1CE7
S1131DD01B781B071A437B685A60C046BD4602B095
S1131DE080BDC046204200001C48000005020000DF
S1131DF04842000080B582B000AF78607B685B68C1
S1131E009BB21800BD4602B080BD000080B582B010
S1131E1000AF78600A00BB1C1A80BB1C1B880B4AED
S1131E20934205D10A4B0B4A0B490C4800F0B6FE0D
S1131E307B689B681B0C1A04BB1C1B881A437B68B9
S1131E409A60C046BD4602B080BDC046FFFF000098
S1131E50A8420000F8470000560200004842000073
S1131E6080B582B000AF78600A00BB1C1A80BB1C2E
S1131E701B880C4A934206D10B4B0C4A99218900CA
S1131E800B4800F08BFE7B689B681B041A0CBB1C80
S1131E901B881B041A437B689A60C046BD4602B087
S1131EA080BDC046FFFF0000C0420000E0470000C4
S1131EB04842000080B582B000AF78600A00FB1C85
S1131EC01A707B681B68074A1A40FB1C1B781906AA
S1131ED0F0231B050B401A437B681A60C046BD46BD
S1131EE002B080BDFBFFFF7080B582B000AF7860A8
S1131EF00A00FB1C1A707B681B68074A1A40FB1C0B
S1131F001B785905E0231B040B401A437B681A60B5
S1131F10C046BD4602B080BDFBFF1F7F80B582B0C6
S1131F2000AF78600A00FB1C1A707B681B68074AC4
S1131F301A40FB1C1B781904E023DB020B401A43F4
S1131F407B681A60C046BD4602B080BDFBFFF87FC7
S1131F5080B582B000AF78600A00FB1C1A707B6801
S1131F601B68074A1A40FB1C1B78D904C0235B0377
S1131F700B401A437B681A60C046BD4602B080BD60
S1131F80FBFFE77F80B582B000AF78600A00FB1CDE
S1131F901A707B681B68074A1A40FB1C1B781904DB
S1131FA0E023DB020B401A437B681A60C046BD463F
S1131FB002B080BDFBFFFE7F80B582B000AF7860C9
S1131FC00A00FB1C1A707B681B68064A1A40FB1C3B
S1131FD01B785B041A437B681A60C046BD4602B096
S1131FE080BDC046FBFFF97F90B585B000AF786037
S1131FF039603B68002B05D1604B614A614822215E
S113200000F0CCFD0F243B1900221A700E23FB189C
S113201000221A705C4B1800FFF738FE7B681B68BF
S11320208022134007D03B1901221A707B680021DB
S11320301800FFF787FE7B681B684022134008D016
S11320400E23FB1801221A707B680121180000F08E
S113205057F93B681B7A002B38D13B681A887B6898
S113206011001800FFF7FCFE3B685A887B681100DA
S11320701800FFF7CBFE3B681A797B681100180043
S1132080FFF72CFE3B689A797B6811001800FFF774
S11320902BFF3B685A797B6811001800FFF73EFF5D
S11320A03B68DA797B6811001800FFF731FE3B6862
S11320B01A7A7B6811001800FFF7FCFE3B685A7A15
S11320C07B6811001800FFF743FF3EE03B681A8865
S11320D07B6811001800FFF7C3FE3B685A887B68D1
S11320E011001800FFF792FE3B681A797B68110013
S11320F01800FFF7F3FD3B689A797B68110018001C
S1132100FFF7F2FE3B68DA797B6811001800FFF7ED
S1132110FFFD3B681A7A7B6811001800FFF7CAFEBE
S11321203B685A7A7B6811001800FFF711FF3B687F
S11321309A7A7B6811001800FFF724FF3B68DA7A6B
S11321407B6811001800FFF737FF0F23FB181B787B
S1132150002B04D07B6801211800FFF7F3FD0E2348
S1132160FB181B78002B04D07B680121180000F0B9
S113217099F8C046BD4605B090BDC046DC4200009B
S1132180D4470000EC4200000500381080B582B04E
S113219000AF78607B6800221A807B6800225A8036
S11321A07B6801221A717B6800225A717B680322C2
S11321B09A717B680422DA717B6800221A727B6848
S11321C000225A72C046BD4602B080BDB0B584B08C
S11321D000AF786039603B68002B05D12E4B2F4A45
S11321E02F487B2100F0DAFC0F23FB1800221A7021
S11321F00E217B1800221A707B681B684022134052
S113220007D07B1801221A707B680121180000F0A6
S113221077F80F23FB1800221A702AE00F23FB180B
S11322201A787B6811001800FFF7BCFD7B68180062
S1132230FFF7A8FDC0467B681800FFF741FD0300C7
S113224004221340F7D00F257B191C787B681800F3
S1132250FFF7D0FD030019003B686200D1527B6890
S11322600421180000F07AF87B191A787B190132DE
S11322701A700F23FB181B780F2BCFD90E23FB18D2
S11322801B78002B04D07B680121180000F00AF8A9
S1132290C046BD4604B0B0BD4C4300000C4800002D
S11322A0EC42000080B584B000AF786039607B6890
S11322B01B68114A1340FB603B680122134003D0A2
S11322C0FB6840221343FB603B680222134003D0A7
S11322D0FB680A4A1340FB603B680422134004D0A5
S11322E0FB68802252051343FB607B68FA681A601E
S11322F0C046BD4604B080BDFBFFFF7FFFFFFFEF7C
S113230080B584B000AF786039607B681B68114A7F
S11323101340FB603B680122134003D0FB6840225A
S11323209343FB603B680222134004D0FB68802285
S113233052051343FB603B680422134003D0FB683F
S1132340054A1340FB607B68FA681A60C046BD46C4
S113235004B080BDFBFFFF7FFFFFFFEF80B584B0BB
S113236000AF786039607B681B680D4A1340FB60DE
S11323703B680422134003D0FB6804221343FB6030
S11323803B68002B04DAFB68802212061343FB60CF
S11323907B68FA681A60C046BD4604B080BDC0467A
S11323A0FBFFFF7F80B582B000AF00237B6002E0BB
S11323B07B6801337B607B68034A9342F8D9C0464B
S11323C0C046BD4602B080BDBFC62D00F0B589B081
S11323D002AF00F0B1F800F0D1FF00F017F9314B73
S11323E0180000F0E9FC14243B19180000F0AEFAC0
S11323F0031E08D03B191B781A002B4B1100180040
S113240000F0DAFC03E0294B180000F0D5FC0C24A2
S11324103B190921180000F08DFB3B199B881A0019
S1132420234B0921180000F0C7FC17257C190C2345
S1132430FB18180000F092FB03002370BB1D082456
S11324403A190A26B9191420381800F0D7FA031ECD
S113245018D0BB1900229B5E19003B1900229B5E19
S11324601A00BB1D00201B5E1C007B191B78002B6F
S113247001D0104B00E0104B10480093230000F0F3
S11324809BFC0CE01723FB181B78002B01D0094B95
S113249000E0094B0A4A1900100000F08DFCFFF718
S11324A081FFC2E75C43000090430000BC4300008E
S11324B0E0430000104400001444000018440000ED
S11324C04044000080B584B000AF78607B681B0C8A
S11324D0084A94466344FB60FB6819687B681B04E4
S11324E01B0C01229A40FB680A431A60C046BD4691
S11324F004B080BD0070044080B584B000AFF860C3
S1132500B960FB1D1A70FB68BA689200D358094A77
S11325101A40FB1D1B781902E023DB000B401A4311
S11325201100FB68BA689200D150C046BD4604B0A1
S113253080BDC046FFF8FFFF80B500AF1D4B1800FB
S1132540FFF7C0FF1C4B1800FFF7BCFF1B4B180024
S1132550FFF7B8FF1A4B022201211800FFF7CCFF46
S1132560174B022202211800FFF7C6FF154A164B2B
S1132570D358144907229343134A8B50134B002218
S113258010211800FFF7B8FF104B0022112118008A
S1132590FFF7B2FF0E4B052218211800FFF7ACFF1E
S11325A00B4B052219211800FFF7A6FFC046BD46B4
S11325B080BDC046090038100A0038100D003810DC
S11325C000900440007004401010000000A004407B
S11325D000D0044080B582B000AF7860084A094B4F
S11325E0D358094A1A407B689906C0231B050B403F
S11325F003491343034A8B50C046BD4602B080BD15
S11326000070044004100000FFFFFFF380B582B0A7
S113261000AF0120FFF7DEFF01F0B8F803007B6094
S11326207B68E12251020448032200F04BFBC046C0
S1132630BD4602B080BDC04600A0064080B584B04F
S113264000AF0E4B1B78002B13D13B1D1800FEF777
S11326505DFF3B1D0A4A5A60022001F0ADF80200FA
S11326603B1D08481900FEF7CDFE044B01221A70E9
S113267000E0C046BD4604B080BDC04650F0FF1F18
S1132680A086010000600640B0B584B000AFBA6017
S11326907B600F243B19021C1A700E257B190A1C3F
S11326A01A70FFF7CBFF134B3A1912781A71114BBA
S11326B001225A717B191A780E4B9A600D4B012234
S11326C01A730C4BBA681A610A4B7A685A61094B3F
S11326D000221A60074B084A19001000FFF796F908
S11326E0031E01D0012300E000231800BD4604B0FE
S11326F0B0BDC04654F0FF1F0060064090B585B0E1
S113270000AF040008001100FB1D221C1A70BB1D41
S1132710021C1A707B1D0A1C1A70FFF78FFF0C2114
S11327207B187A1D12781A70124BFA1D12781A71DE
S1132730104B00225A71BB1D1A780E4B9A600D4B38
S113274001221A730B4B7A181A610A4B01225A613F
S1132750084B00221A60074B074A19001000FFF7C4
S113276055F9031E01D0012300E000231800BD46E3
S113277005B090BD54F0FF1F0060064080B582B0E4
S113278000AF78607B681B68024A13401800BD469E
S113279002B080BD0400008080B582B000AF7860D4
S11327A00A00FB1C1A70FB1C1B78002B08D07B68EA
S11327B01B68084A134080221A437B681A6005E0AC
S11327C07B681B68034A1A407B681A60C046BD4692
S11327D002B080BD7BFFFF7F80B582B000AF786020
S11327E07B685B688022D2031A437B685A60C046C8
S11327F0BD4602B080BD000080B582B000AF7860F5
S11328000A00FB1C1A70FB1C1B780F2B05D90A4B02
S11328100A4A0B490B4800F0C1F97B685B681B014D
S11328201A09FB1C1B781B071A437B685A60C046B5
S1132830BD4602B080BDC046604400003C48000074
S1132840050200008844000080B582B000AF7860C3
S11328507B685B689BB21800BD4602B080BD000077
S113286080B584B000AF0D4B1B78002B12D13B1DFB
S11328701800FFF78BFC3B1D094A19001000FFF7F5
S1132880B3FB074B01211800FFF786FF034B01221E
S11328901A7000E0C046BD4604B080BD6CF0FF1F56
S11328A000500440B0B584B000AF78607B68DBB200
S11328B0124A19001000FFF79FFF104B1800FFF792
S11328C08BFFC0460D4B1800FFF758FF030004228E
S11328D01340F7D00E257C19084B1800FFF7B4FFFE
S11328E003002380054B04211800FFF737FD7B19F3
S11328F01B881800BD4604B0B0BDC046005004405B
S113290090B58BB000AF7860FFF7AAFF08243B199D
S1132910064A19001000FFF759FC3B197A68520067
S1132920D35A1800BD460BB090BDC04600500440B9
S113293080B582B000AF78607B681800FFF7B2FF03
S113294003001800BD4602B080BD0000B0B584B0DD
S113295000AF78607B6800221A707B6800225A708E
S11329600023FB6022E00A243B1900221A700B2585
S11329707B192149FA688A1812781A703A197B1956
S1132980187801230D21FFF77FFE031E0BD13B199D
S11329901B78C72B07D17B687A1912781A707B6869
S11329A001225A7005E0FB680133FB60FB68032BCE
S11329B0D9D97B685B7801225340DBB2002B01D06C
S11329C0002315E07B681B7800222A211800FFF7FA
S11329D095FE7B681B7801220E211800FFF78EFEFE
S11329E07B681B780D222A211800FFF787FE01233C
S11329F01800BD4604B0B0BD5C48000080B588B086
S1132A0000AFF860B9607A603B60BB6800221A804E
S1132A107B6800221A803B6800221A80FB68002B26
S1132A2006D0FB685B7801225340DBB2002B01D057
S1132A3000237BE0FB6818781423FA18062301218D
S1132A40FFF722FE031E01D000236FE01422BB18FF
S1132A501B781B029BB2BA18527813439BB21BB269
S1132A601E22BA18002B00DA03339B1013801422A1
S1132A70BB189B781B029BB2BA18D27813439BB243
S1132A801BB21C22BA18002B00DA03339B101380EC
S1132A901422BB181B791B029BB2BA185279134338
S1132AA09BB21BB21A22BA18002B00DA03339B1014
S1132AB013801E23FB1800229A5E13001B019B1A2D
S1132AC09B009B18DB001A00FA2399001000FDF705
S1132AD0E9FD03001AB2BB681A801C23FB1800220C
S1132AE09A5E13001B019B1A9B009B18DB001A00C3
S1132AF0FA2399001000FDF7D5FD03001AB27B6894
S1132B001A801A23FB1800229A5E13001B019B1AD9
S1132B109B009B18DB001A00FA2399001000FDF7B4
S1132B20C1FD03001AB23B681A8001231800BD4698
S1132B3008B080BD80B582B000AF786039607B6832
S1132B403A681A603B681800FFF7DAFE03001A00BF
S1132B507B689A80C046BD4602B080BDB0B584B0E3
S1132B6000AF78607B681B680E257C191800FFF79E
S1132B70DFFE030023807B191B887A6892889B1AE6
S1132B80BB6001231A1CBB68642B01DC00231A1CE4
S1132B90D3B21800BD4604B0B0BD000090B587B0F4
S1132BA002AFF860B9607A603B60BC68FA68396863
S1132BB003487B680093230000F0FEF800BEFDE7A5
S1132BC05845000080B582B000AF78600A00FB1C55
S1132BD01A70FB1C1B78002B08D07B68DB78DBB2F7
S1132BE008221343DAB27B68DA7007E07B68DB788B
S1132BF0DBB208229343DAB27B68DA70C046BD4682
S1132C0002B080BD80B582B000AF78600A00FB1CC2
S1132C101A70FB1C1B78002B08D07B68DB78DBB2B6
S1132C2004221343DAB27B68DA7007E07B68DB784E
S1132C30DBB204229343DAB27B68DA70C046BD4645
S1132C4002B080BD80B582B000AF78600A00FB1C82
S1132C501A70FB1C1B78002B08D07B68DB78DBB276
S1132C6008221343DAB27B68DA7007E07B68DB780A
S1132C70DBB208229343DAB27B68DA70C046BD4601
S1132C8002B080BD80B582B000AF78600A00FB1C42
S1132C901A70FB1C1B78002B08D07B68DB78DBB236
S1132CA004221343DAB27B68DA7007E07B68DB78CE
S1132CB0DBB204229343DAB27B68DA70C046BD46C5
S1132CC002B080BD90B589B000AFF860B9603B60D8
S1132CD0FB1D1A70334B1B78002B01D001235CE0E1
S1132CE0304BFA1D12781A70FB1D1B78062B05D089
S1132CF050DC012B02D0032B26D04BE0FA68294B81
S1132D005A6018243B191800FEF7ECF921007B18CF
S1132D10BA681A60234B5B683A6879181800FEF7A2
S1132D20E9F8204B5B6801211800FFF74BFF1D4BAE
S1132D305B6801211800FFF765FF1A4B1A4A9A6075
S1132D40184B1A4ADA6027E0FA68164B5A601024C6
S1132D503B191800FDF756FF21007B18BA681A606A
S1132D60104B5B683A6879181800FDF717FE0D4B95
S1132D705B6801211800FFF765FF0A4B5B680121BE
S1132D801800FFF77FFF074B094A9A60054B094A71
S1132D90DA6001E0042300E000231800BD4609B016
S1132DA090BDC04670F0FF1F5B1100009911000038
S1132DB0110D00006D0D00000FB480B582B000AF9E
S1132DC00C4B1B78002B02D101235B420BE0142334
S1132DD0FB183B603A683969074B180000F0D6F8D5
S1132DE003007B607B681800BD4602B080BC08BC51
S1132DF004B0184770F0FF1FFD2D000090B583B09C
S1132E0000AF7860094B1B78002B02D101235B4291
S1132E1008E0064B9C68054B5B68391D01221800CD
S1132E20A04701231800BD4603B090BD70F0FF1FFA
S1132E3080B586B000AFB9607A603B600F23FB18A1
S1132E40021C1A70BB687B610DE00F23FB181A7813
S1132E503B6A100098473B681B685A1C3B681A6021
S1132E607B6901337B617A697B689A42EDDBC046FA
S1132E70C046BD4606B080BD80B58CB000AFF860DA
S1132E80B9607A603B600023FB61FB68BB61BB698E
S1132E905A1CBA6100221A707B68002B35D0BB68BB
S1132EA01B68FB62FB6A002B2BD1BB6930221A70B2
S1132EB0FB690133FB61FB6964E03968F86AFDF77B
S1132EC0F1FB03003B613B693A685343FA6AD31A46
S1132ED0BB62BB6A002B06DABB6A3B623B6A3022E8
S1132EE0D31ABB6202E0BB6A3033BB623B69FB624C
S1132EF0BB695A1CBA61BA6AD2B21A70FB6901334F
S1132F00FB61FB6A002BD8D13BE0BB681B687B628A
S1132F107B6A002B32D1BB6930221A70FB69013302
S1132F20FB61FB692EE03B681900786AFDF730FB12
S1132F3003007B613B687A6953437A6AD31A3B6224
S1132F403B6A092B03D83B6A30333B620BE03823DE
S1132F50FB181B78002B01D0412300E061233A6A5F
S1132F609B180A3B3B627B697B62BB695A1CBA6152
S1132F703A6AD2B21A70FB690133FB617B6A002B97
S1132F80D1D1FB691800BD460CB080BD90B59DB091
S1132F9002AFF860B9607A6000233B660023FB65EA
S1132FA00023BB614A23FB1800221A7000233B61F3
S1132FB0BB687B667BE17B6C252B07D07A6CFB6856
S1132FC010009847BB690133BB616DE14B23FB18CB
S1132FD001221A7000237B650023BB651BE07B6E16
S1132FE001337B667B6E1B787B647B6C2F2B0DDD42
S1132FF07B6C392B0ADC7A6D13009B009B185B00F9
S11330001A007B6CD318303B7B6504E07B6E013B7C
S11330107B660123BB65BB6D002BE0D006233B65BB
S11330207B6E01337B667B6E1B782E2B24D10023B1
S11330303B650023BB651BE07B6E01337B667B6EC7
S11330401B787B647B6C2F2B0DDD7B6C392B0ADCAE
S11330503A6D13009B009B185B001A007B6CD3181D
S1133060303B3B6504E07B6E013B7B660123BB6523
S1133070BB6D002BE0D002E07B6E013B7B667B6E78
S113308001337B667B6E1B787B647B6C642B1BD06B
S11330907B6C692B18D07B6C662B15D07B6C462B14
S11330A012D07B6C782B0FD07B6C582B0CD07B6CA4
S11330B06F2B09D07B6C622B06D07B6C702B03D0FA
S11330C07B6C752B00D0ABE07B6C642B02D07B6CEB
S11330D0692B16D17B681A1D7A601B687B611423E7
S11330E0F9181C2438194B23FB181B7800930A2366
S11330F00122FFF7C1FE0300FB653A19FB6DD318EB
S11331003B667B6C582B02D07B6C782B1DD17B6C7F
S1133110782B03D14B23FB1800221A707B681A1DED
S11331207A601B683B611023F9181C2438194B235F
S1133130FB181B78009310230022FFF79DFE030069
S1133140FB653A19FB6DD3183B667B6C6F2B08D07B
S11331507B6C622B05D07B6C702B02D07B6C752B47
S113316040D17B681A1D7A601B683B617B6C752BB0
S11331701DD07B6C752B1FDC7B6C702B12D07B6C91
S1133180702B19DC7B6C622B07D07B6C6F2B13D1FB
S11331904A23FB1808221A700FE04A23FB18022264
S11331A01A700AE04A23FB1810221A7005E04A2319
S11331B0FB180A221A7000E0C0464A23FB181A784A
S11331C01023F9181C2438194B23FB181B7800937F
S11331D013000022FFF750FE0300FB653A19FB6D54
S11331E0D3183B667A6D1823F818F96DFB680093C1
S11331F003002020FFF71CFE3B6E002B54D00AE096
S11332003B6E5A1E3A661B781A00FB6810009847FA
S1133210BB690133BB613B6E1B78002BF0D143E0EB
S11332207B6C632B0DD17B681A1D7A601B68DBB243
S11332303B643A6CFB6810009847BB690133BB617F
S113324032E07B6C732B28D17B681A1D7A601B6873
S1133250FB64FB6C002B27D0FB6C1800FDF790F986
S11332600300FB657A6D1823F818F96DFB68009369
S113327003002020FFF7DCFD0AE0FB6C5A1CFA6413
S11332801B781A00FB6810009847BB690133BB61C7
S1133290FB6C1B78002BF0D106E07A6CFB68100005
S11332A09847BB690133BB617B6E01337B667B6EE0
S11332B01B787B647B6C002B00D07CE6BB69180018
S11332C0BD461BB090BD000080B500AF0B4B9B7892
S11332D0DBB21A000823134007D0084B9B78DBB2FB
S11332E0064A08210B43DBB29370054A88235B012D
S11332F00021D150C046BD4680BDC04600D0074025
S11333000070044080B500AF034A044B0449D15017
S1133310C046BD4680BDC046007004404410000055
S11333200000031080B582B000AF7860034B7A6868
S11333301A60C046BD4602B080BDC04680F0FF1F83
S113334080B582B000AF0200FB1D1A700A4B1B78D7
S1133350DBB238229343DAB2FB1D1B78DB00DBB20D
S113336038210B40DBB204491343DBB20B70C04677
S1133370BD4602B080BDC0460040064080B500AFE7
S1133380FFF7C0FF104B180000F09EFC0F4B180015
S1133390FFF7C8FF00231800FFF7D2FF0C4B1A00F9
S11333A00021002000F03AFD022300210022180031
S11333B000F0A8FB074B180000F092FA064B074AEE
S11333C01A60C046BD4680BD7448000000127A00F1
S11333D0674800006C48000000F0FF1F006CDC022E
S11333E080B582B000AF7860084B1B68084A134070
S11333F019007B689A04C0231B031A40034B0A4339
S11334001A60C046BD4602B080BDC046007004408C
S1133410FFFFF3FF80B582B000AF7860084A094B24
S1133420D358094A1A407B68190480235B020B4075
S113343003491343034A8B50C046BD4602B080BDC6
S11334400070044004100000FFFFFEFF80B584B04C
S113345000AF786039600F203B187A6812781A70D0
S11334603B183A1812785F210A401A703B681978A1
S11334703B183A1812780A431A707B683A18127883
S11334801A70C046BD4604B080BD80B584B000AF9C
S113349078600A00FB1C1A700F203B187A681278B7
S11334A01A703B183A1812780F218A431A703B1885
S11334B03918FA1C097812780A431A707B683A188A
S11334C012781A70C046BD4604B080BD80B500AF06
S11334D0074B1B68002B05D1064B074A0748E1211F
S11334E0FFF75CFB024B1B681800BD4680BDC0465D
S11334F080F0FF1F984500007C480000A4450000B0
S113350080B582B000AFFFF7E1FF03007B607B680A
S1133510002B01D17B6840E0224B1B78DBB2DB0837
S1133520DAB2FB1C07210A401A70FB1C1B787A686C
S1133530DA4013007B601B4B5B78DBB21B09DAB209
S1133540BB1C03210A401A70BB1C1B78002B23D020
S1133550FB1C1B78072B14D01BDC052B02DC002B77
S113356003DA16E0062B04D013E07B685B097B606A
S113357012E07B6814211800FDF70AF803007B6051
S11335800AE07B680C211800FDF702F803007B6059
S113359002E000237B60C0467B681800BD4602B091
S11335A080BDC0460040064080B500AF0B4B9B7900
S11335B0DBB21A000123134002D1094B1B6809E056
S11335C0084B1A68054B1B7ADBB25B0807210B40DA
S11335D0DA4013001800BD4680BDC04600400640D6
S11335E004F0FF1F08F0FF1F80B500AF074B9B7965
S11335F0DBB21A001023134003D1FFF781FF03004D
S113360001E0034B1B681800BD4680BD0040064026
S113361004F0FF1F80B500AFFFF758FF0300180048
S1133620BD4680BD80B584B000AF78607B680E4A2B
S1133630934204D80F23FB1800221A700CE07B6815
S11336400A4A934204D80F23FB1801221A7003E09C
S11336500F23FB1802221A700F23FB181B78180083
S1133660BD4604B080BDC0469798000000127A00A1
S113367080B500AF0B4B1B78DBB25BB2002B0DDACD
S1133680094B1B68002B06D1084B094AAA214900A3
S11336900848FFF783FA044B1B6800E00023180076
S11336A0BD4680BD0050064080F0FF1F98450000D5
S11336B094480000A445000080B582B000AF1B4BC5
S11336C01B689B0C03221340032B22D025D8002B0C
S11336D002D0022B0ED020E0FFF7CAFF02008023A5
S11336E01B029A4203D180231B027B6018E0002353
S11336F07B6015E00E4B1B68002B06D10D4B0E4A68
S1133700B42149000D48FFF749FA094B1B687B6057
S113371006E0FA239B007B6002E000237B60C04646
S11337207B681800BD4602B080BDC04600700440EE
S113373084F0FF1F04460000AC480000A4450000CC
S113374080B582B000AF0F4A0F4BD3581B0C012237
S1133750134002D0012B05D00CE000F019F903004E
S11337607B600AE000F082F903007B607B685B0801
S11337707B6002E000237B60C0467B681800BD4686
S113378002B080BD007004400410000080B500AF9A
S113379000F0C2F8064A074BD3581B0F0F22134000
S11337A001331900FCF7F4FE03001800BD4680BD88
S11337B0007004404410000080B584B000AF0200E3
S11337C0FB1D1A70FB1D1B780D2B00D172E000DD70
S11337D079E00B2B00D168E000DD74E00A2B00D106
S11337E05EE000DD6FE0092B55D000DD6BE0082BB7
S11337F04CD000DD67E0072B00D15FE000DD62E024
S1133800062B3ED05FDC052B36D05CDC042B17D0B6
S113381059DC012B02DC002B03DA54E0022B0FD01D
S113382051E000F079F82C4A2C4BD3581B0F0F228F
S1133830134001331900FCF7ABFE0300FB6045E0C5
S113384000F06AF8244A254BD3581B0F0F2213406B
S113385001331900FCF79CFE0300FB601E4A1F4B5A
S1133860D3581B0C0722134001331900F868FCF7E6
S11338708FFE0300FB6029E0FFF762FF0300FB609B
S113388024E0FFF719FF0300FB601FE000F0D6F807
S11338900300FB601AE000F0BDF80300FB6015E0D4
S11338A000F076F80300FB6010E000F0DFF803009E
S11338B0FB600BE0FA239B00FB6007E0FFF7D8FEF8
S11338C00300FB6002E00023FB60C046FB681800B5
S11338D0BD4604B080BDC0460070044044100000E2
S11338E080B582B000AF786009497B685B68094A9B
S11338F08B507B681B781800FFF78CFD7B685B7826
S11339001800FFF76DFDC046BD4602B080BDC0463D
S1133910007004404410000080B582B000AF1B4B1F
S11339209B79DBB29B08032213403B603B68032B6B
S11339300FD03B68032B20D83B68022B18D03B6880
S1133940022B1AD83B68002B08D03B68012B0AD005
S113395013E000F08BF803007B6011E000F018F82E
S113396003007B600CE0FFF71FFE03007B6007E0B1
S1133970FFF7ACFD03007B6002E000237B60C046E0
S11339807B681800BD4602B080BDC04600400640BA
S113399080B582B000AF1D4B5B78DBB21A00022306
S11339A0134006D1194B9B79DBB21A002023134034
S11339B001D0002326E0FFF717FE03007B607B683D
S11339C0002B01D17B681DE0104BDB78DBB25B0977
S11339D0DAB2FB1C03210A401A700C4BDB78DBB211
S11339E0DB09DAB2BB1C01210A401A70FB1C1978EE
S11339F0BB1C1A78064B49008A185200D35A1A0085
S1133A007B6853431800BD4602B080BD00400640A9
S1133A10C448000080B500AF074B1B78DBB21A0026
S1133A200223134001D1002302E0FFF7BDFD030090
S1133A301800BD4680BDC0460040064080B582B037
S1133A4000AFFFF7D1FD03007B607B68002B08D03B
S1133A50FFF762FF0300DB087A689A4201D87B68AB
S1133A6000E000231800BD4602B080BD80B582B0DE
S1133A7000AF194B9B79DBB21A004023134001D1EC
S1133A80002325E0FFF7C6FD03007B607B68002B65
S1133A9005D1124B124A13491348FFF77FF80E4B16
S1133AA01B79DBB21A001F23134001331900786815
S1133AB0FCF76EFD03007B60074B5B79DBB21A00F9
S1133AC01F23134018331A007B6853437B607B68C1
S1133AD01800BD4602B080BD0040064014460000F8
S1133AE0D448000055020000A445000080B582B00F
S1133AF000AF0200FB1D1A7000231800BD4602B07F
S1133B0080BD000090B585B000AF0400080011002E
S1133B10FB1D221C1A70BB1D021C1A707B1D0A1C83
S1133B201A70404B9B79DBB29B0803221340FB6065
S1133B303C4B9B79DAB20B203B1801210A401A70E6
S1133B40384B1B7ADBB25B08DAB20A243B19072133
S1133B500A401A707A1D3B1912781B789A422ED0AB
S1133B603B181B78012B19D1FB68012B06D02D4B78
S1133B701B78DBB21A00022313400FD0294B5B7869
S1133B80DBB2284A01218B43DBB25370C046254B7C
S1133B909B79DBB21A0001231340F8D1214B1B7A25
S1133BA0DBB22F229343DAB27B1D1B78DB18DBB226
S1133BB00E210B40DBB21B491343DBB20B72194BD2
S1133BC05B78DBB201229343DAB2BB1D1B7801217F
S1133BD00B40DBB213491343DBB24B70114B1B7820
S1133BE0DBB203229343DAB20E49FB1D1B78134365
S1133BF0DBB20B70FB68012B04D0FB1D1B78022287
S1133C0013400AD0C046074B9B79DBB21A0001234C
S1133C101A40BB1D1B789A42F5D100231800BD46FB
S1133C2005B090BD0040064080B584B000AF786018
S1133C307B68002B06D1204B204ABE2189002048F6
S1133C40FEF7ACFF0F203B1800221A707B685B78EC
S1133C501F221340D9B23B183A1812780A431A703B
S1133C60184A3B181B781371164B5B79DBB21F2281
S1133C709343DAB27B689B781F210B40DBB2114976
S1133C801343DBB24B710F4B1B79DAB27B681B78A1
S1133C901343DBB20B4A40210B43DBB21371C04622
S1133CA0084B9B79DBB21A0040231340F8D0C0467E
S1133CB0C046BD4604B080BD20460000E848000070
S1133CC0A445000000400640B0B584B000AF786061
S1133CD07B681B680F257C191800FFF7A3FC030001
S1133CE023707B681B791B4A19001000FFF7CDFB7A
S1133CF07B680633174A19001000FFF7A7FB164B21
S1133D005B78DBB23C229343DAB27B191B781B014C
S1133D10DBB230210B40DBB21343DAB27B685B7950
S1133D200D491343DBB24B707B685B79002B0DD0DC
S1133D30084B1B78DBB25BB2002B07DAC046064B9C
S1133D409B79DBB21A0002231340F8D0C046BD466B
S1133D5004B0B0BD005006400040064080B582B0BB
S1133D6000AF02003960FB1D1A703B68002B05D1BF
S1133D70254B264A26492748FEF710FF264B5B7839
S1133D80DBB2254A02218B43DBB25370224B1B78F2
S1133D90DBB23B221340DBB21F4980225242134361
S1133DA0DBB20B70C0461C4B9B79DBB21A001C23A0
S1133DB01340082BF7D1184B5B79DBB2164A40212C
S1133DC08B43DBB25371C046134B9B79DBB21A00B1
S1133DD020231340F8D13B681800FFF725FF0E4B52
S1133DE05B79DBB20C4A40210B43DBB25371C04612
S1133DF0094B9B79DBB21A0020231340F8D000232F
S1133E001800BD4602B080BD20460000FC480000FA
S1133E1064050000A44500000040064080B582B05F
S1133E2000AF3A60FB1D021C1A70BB1D0A1C1A70FD
S1133E303B68002B05D1144B144A15491548FEF76D
S1133E40ADFEFB1D1B781800FFF750FE3A68BB1D42
S1133E501B7811001800FFF781FF0F4B1B78DBB2B2
S1133E600D4A3F210B40DBB21370C0460A4B9B79CD
S1133E70DBB21A000C2313400C2BF7D100231800DB
S1133E80BD4602B080BDC046204600001049000077
S1133E900D060000A445000000400640074B10B585
S1133EA00400002B02D0002100E000BF044B1B687B
S1133EB0002B00D09847200000F030F800000000EC
S1133EC088F0FF1F03008218934200D170471970D5
S1133ED00133F9E770B500260C4C0D4D641BA4109A
S1133EE0A64209D1002600F01DFD0A4C0A4D641BB0
S1133EF0A410A64205D170BDB300EB589847013613
S1133F00EEE7B300EB5898470136F2E74449000066
S1133F10444900004849000044490000FEE7C04607
S1133F20696E7374616E6365203C2041525241593D
S1133F305F53495A4528735F6C70736369426173B8
S1133F40657329002F55736572732F6173686F6BE6
S1133F5070617564656C617072696C2F4945454583
S1133F602050726F6A656374732F53444B5F325FE2
S1133F70325F305F4652444D2D4B4C32365A2F64DB
S1133F806576696365732F4D4B4C32365A342F6412
S1133F907269766572732F66736C5F6C7073636994
S1133FA02E63000068616E646C6500006461746176
S1133FB000000000636F6E6669670000636F6E66E1
S1133FC069672D3E62617564526174655F42707306
S1133FD00000000062617564526174655F42707331
S1133FE00000000072696E674275666665720000C3
S1133FF07866657200000000786665722D3E646123
S1134000746153697A650000786665722D3E646157
S113401074610000636F756E74000000696E7374E0
S1134020616E6365203C20756172744172726179BE
S1134030436F756E740000002F55736572732F61A2
S113404073686F6B70617564656C617072696C2FF5
S1134050494545452050726F6A656374732F534414
S11340604B5F325F325F305F4652444D2D4B4C32D2
S1134070365A2F646576696365732F4D4B4C32361F
S11340805A342F647269766572732F66736C5F7528
S11340906172742E6300000068616E646C650000D8
S11340A0636F6E6669670000636F6E6669672D3EB5
S11340B062617564526174655F4270730000000050
S11340C062617564526174655F4270730000000040
S11340D0646174610000000072696E67427566660F
S11340E0657200007866657200000000786665728B
S11340F02D3E6461746153697A6500007866657267
S11341002D3E646174610000636F756E740000007D
S1134110696E7374616E6365203C2041525241594B
S11341205F53495A4528735F69326342617365730B
S1134130290000002F55736572732F6173686F6BCC
S113414070617564656C617072696C2F4945454591
S11341502050726F6A656374732F53444B5F325FF0
S1134160325F305F4652444D2D4B4C32365A2F64E9
S11341706576696365732F4D4B4C32365A342F6420
S11341807269766572732F66736C5F6932632E632E
S1134190000000006D6173746572436F6E66696739
S11341A020262620737263436C6F636B5F487A002A
S11341B06D6173746572436F6E6669670000000019
S11341C0786665720000000068616E646C650000CA
S11341D069326348616E646C65000000736C6176DB
S11341E065436F6E66696700736C617665436F6ED5
S11341F06669672D3E736C617665416464726573AC
S113420073203C20736C617665436F6E6669672D1D
S11342103E7570706572416464726573730000006A
S11342206368616E6E656C203C2046534C5F464566
S113423041545552455F5453495F4348414E4E459E
S11342404C5F434F554E54002F55736572732F6165
S113425073686F6B70617564656C617072696C2FE3
S1134260494545452050726F6A656374732F534402
S11342704B5F325F325F305F4652444D2D4B4C32C0
S1134280365A2F646576696365732F4D4B4C32360D
S11342905A342F647269766572732F66736C5F7417
S11342A073695F76342E68006C6F775F746872652B
S11342B073686F6C64203C2030784646464655004F
S11342C0686967685F7468726573686F6C64203CC2
S11342D0203078464646465500000000636F6E66FF
S11342E0696720213D204E554C4C00002F557365C5
S11342F072732F6173686F6B70617564656C617044
S113430072696C2F494545452050726F6A65637424
S1134310732F53444B5F325F325F305F4652444DDC
S11343202D4B4C32365A2F646576696365732F4D75
S11343304B4C32365A342F647269766572732F6629
S1134340736C5F7473695F76342E630063616C42CF
S113435075666620213D204E554C4C000D0A3D3DAE
S11343603D2050342D4320647269766572206C6957
S11343706272617279207265666572656E6365202A
S1134380286170702F29203D3D3D0D0A000000007A
S1134390416363656C65726F6D6574657220666FE9
S11343A0756E6420617420493243206164647265CF
S11343B07373203078253032580D0A005741524E1D
S11343C0494E473A20616363656C65726F6D65742D
S11343D06572206E6F7420666F756E642E0D0A0010
S11343E0546F756368206368616E6E656C20257513
S11343F02063616C696272617465642C206261730C
S1134400656C696E65203D2025750D0A0D0A000056
S1134410796573006E6F2000416363656C20583DBD
S113442025356420593D253564205A3D25356420C1
S11344306D67207C20746F7563683D25730D0A00D9
S1134440416363656C2072656164206661696C65B3
S113445064207C20746F7563683D25730D0A000029
S11344606368616E6E656C203C2046534C5F464524
S113447041545552455F5453495F4348414E4E455C
S11344804C5F434F554E54002F55736572732F6123
S113449073686F6B70617564656C617072696C2FA1
S11344A0494545452050726F6A656374732F4652BF
S11344B0444D5F4B4C32365A5F50726F6A65637479
S11344C0732F5034435F4472697665725F4C69623E
S11344D0726172795F616E645F43492F64656D6FC9
S11344E05F636F64652F30315F6472697665725FF4
S11344F06C6962726172795F63695F7265706F2F54
S11345006170702F61726D6763632F2E2E2F2E2EB4
S11345102F2E2E2F2E2E2F2E2E2F2E2E2F53444B5A
S11345205F325F325F305F4652444D2D4B4C323622
S11345305A2F646576696365732F4D4B4C32365A36
S1134540342F647269766572732F66736C5F74734B
S1134550695F76342E680000415353455254204518
S113456052524F52202220257320223A2066696C31
S1134570652022257322204C696E65202225642241
S11345802066756E6374696F6E206E616D6520229E
S1134590257322200A000000675F7874616C30463E
S11345A0726571002F55736572732F6173686F6B39
S11345B070617564656C617072696C2F494545451D
S11345C02050726F6A656374732F53444B5F325F7C
S11345D0325F305F4652444D2D4B4C32365A2F6475
S11345E06576696365732F4D4B4C32365A342F64AC
S11345F07269766572732F66736C5F636C6F636B3D
S11346002E630000675F7874616C333246726571A3
S1134610000000006D6367706C6C30636C6B0000AD
S1134620636F6E66696700004C505343495F47658A
S113463074496E7374616E63650000004C5053439B
S1134640495F496E697400004C505343495F4765A4
S11346507444656661756C74436F6E6669670000C7
S11346604C505343495F5772697465426C6F636B76
S1134670696E67004C505343495F52656164426CF4
S11346806F636B696E6700000000000000B00640B5
S113469000C00640000000000B0034100C00341071
S11346A0554152545F476574496E7374616E636516
S11346B000000000554152545F496E6974000000C7
S11346C0554152545F47657444656661756C744323
S11346D06F6E666967000000554152545F52656110
S11346E064426C6F636B696E67000000140016000F
S11346F018001A001C001E00220028001C002000C4
S1134700240028002C003000380044003000380019
S113471040004800500058006800800050006000CD
S1134720700080009000A000C000F000A000C00055
S1134730E0000001200140018001E001400180010E
S1134740C0010002400280020003C0038002000393
S113475080030004800400050006800700050006AD
S1134760000700080009000A000C000F0060064062
S11347700070064006003410070034104932435FCD
S1134780476574496E7374616E6365004932435FB3
S11347904D6173746572496E697400004932435FF8
S11347A04D617374657247657444656661756C74B4
S11347B0436F6E66696700004932435F4D617374ED
S11347C065725472616E73666572426C6F636B6975
S11347D06E6700005453495F496E6974000000001D
S11347E05453495F536574486967685468726573C4
S11347F0686F6C64000000005453495F5365744C47
S11348006F775468726573686F6C64005453495FC2
S113481043616C6962726174650000005453495FBE
S11348205365744D656173757265644368616E6E3A
S1134830656C4E756D626572000000005453495FEB
S11348405365744D656173757265644368616E6E1A
S1134850656C4E756D626572000000001C1D1E1FA4
S11348600702000000000000010000000103000036
S11348700000011000127A0000048000434C4F43F2
S11348804B5F4765744D6367457874436C6B467240
S113489065710000434C4F434B5F4765744F73632E
S11348A0304572436C6B467265710000434C4F4354
S11348B04B5F476574457233326B436C6B4672656C
S11348C0710000008002DC020005B805800795082D
S11348D0000A710B434C4F434B5F476574506C6C3B
S11348E03046726571000000434C4F434B5F456E88
S11348F061626C65506C6C3000000000434C4F43A7
S11349004B5F5365745062654D6F64650000000031
S1134910434C4F434B5F426F6F74546F5065654D0A
S11349206F646500F8B5C046F8BC08BC9E46704785
S10F4930F8B5C046F8BC08BC9E467047B1
S10B493CD4BAFF7F0100000062
S1074944F108000072
S1074948C50800009A
S10F494C000040010080000000093D0054
S903049167
